:020000040800F2
:10000000FCFF0020B9200000411F0000411F00003C
:10001000411F0000411F0000411F0000411F000060
:10002000411F0000411F0000411F0000411F000050
:10003000411F0000411F0000411F0000411F000040
:10004000411F0000411F0000411F0000411F000030
:10005000411F0000411F0000411F0000411F000020
:10006000411F0000411F0000411F0000411F000010
:10007000411F0000411F0000411F0000411F000000
:10008000411F0000411F0000411F0000411F0000F0
:10009000411F0000411F0000411F0000411F0000E0
:1000A000411F0000411F0000411F0000411F0000D0
:1000B000491F0000411F0000411F0000411F0000B8
:1000C000411F0000411F0000411F0000411F0000B0
:1000D000411F0000411F0000411F0000411F0000A0
:1000E000411F0000411F0000411F0000411F000090
:1000F000411F0000411F0000411F0000411F000080
:10010000411F0000411F0000411F0000411F00006F
:10011000411F0000411F0000411F0000411F00005F
:10012000411F0000411F0000411F0000411F00004F
:10013000411F0000411F0000411F0000411F00003F
:10014000411F0000411F0000411F0000411F00002F
:1001500001480068704700BFF809002083B0CDF85F
:1001600000E000F0FF031A09104603F00F021346E7
:1001700014E0194A02921FE0184A02921CE0184A41
:10018000029219E0174A029216E0174A029213E00F
:10019000164A029210E0164A02920DE00028E8D0BA
:1001A0000128E9D00228EAD00328EBD00428ECD0BB
:1001B0000528EDD00628EED0012212B29A40ADF803
:1001C000042002980A46BDF8041000F0BFFADDF8DA
:1001D00000E003B0704700BF00080140000C014080
:1001E000001001400014014000180140001C0140B3
:1001F0000020014081B0194900EA010108460022AF
:100200000EE0042022E0082020E010201EE0202044
:100210001CE040201AE0802018E040F2001015E0B9
:100220000F498842EDD00F498842ECD00E498842F0
:10023000EBD00E498842EAD00D498842E9D00D49F9
:100240008842E8D00C498842E7D010460B4909683B
:1002500041EA000209490A6001B0704700FCFFFF53
:1002600000080140000C0140001001400014014052
:1002700000180140001C01400020014018100240FD
:1002800082B0CDF800E0034619460191FFF760FF08
:1002900040F2E83100FB01F201990A601F49097838
:1002A000C1F30311C8B21E4909180878C0B21A1D5B
:1002B0001968C140116019490988C1F3022188B247
:1002C000174909180878C0B203F20802191D096815
:1002D000C140116011490988C1F3C22188B2104997
:1002E00009180878C0B203F20C02191D0968C14050
:1002F00011600A490988C1F3813188B20949091896
:100300000978C8B203F2100203F20C010968B1FBCC
:10031000F0F11160DDF800E002B070470410024017
:10032000FF2A0000BC0F000081B0CDF800E00122E0
:1003300052B23E490A6000F268010B686FF000613A
:1003400003EA0102144603F00061C90E0B4602F0F5
:100350000041B1F1004F02D135490A6801E0354949
:100360000A6804F47021090C0E464FF6FF7104EA86
:1003700001010D4604F44011B1F5401F0DD16FF09D
:10038000706102EA01010E462A490A686FF0706145
:100390000A4028490A60324616E004F48011B1F59B
:1003A000801F09D14FF00301B140C94302EA0101A6
:1003B00041F070610A4607E0610D090105FA01F19B
:1003C000C9430A4042F070622BB1610D090105FA80
:1003D00001F10A43FFE704F00041B1F1004F02D1FF
:1003E00013490A6001E013490A6040F2000A81469D
:1003F0004FEA8A0109EB01010968B1F1FF3F10D012
:1004000009F134014FEA8A03C91809680A4609EB61
:100410000301096808461146FFF7A0FE0AF1010A28
:10042000E6E7DDF800E001B0704700BF000342429C
:100430001C0001400400014081B00168C1F340107C
:1004400001B0704789B0CDF800E0834698B28C4681
:10045000BDF824100A9E04ACADF80410ADF80800F5
:100460002046FFF70DFFBDF80800BDF80410644CEE
:10047000A34512D101256DB2624C2560624D634CDB
:100480002560634D634C2560634D644C2560644D6D
:10049000644C2560079C039456E0634CA34512D13D
:1004A00001256DB2614C2560614D584C2560614D50
:1004B000584C2560604D594C2560604D594C256065
:1004C000069C039440E05E4CA34512D101256DB219
:1004D0005C4C25605C4D4D4C25605C4D4D4C256061
:1004E0005B4D4E4C25605B4D4E4C2560069C039445
:1004F0002AE0594CA34512D101256DB2574C256015
:10050000574D424C2560574D424C2560564D434C4B
:100510002560564D434C2560069C039414E0544CD2
:10052000A34511D101256DB2524C2560524D374C77
:100530002560524D374C2560514D384C2560514D4A
:10054000384C2560069C0394ADF80410ADF8080003
:100550003046FFF7E9FEBDF80800BDF804100BF1C6
:10056000100500242C600BF110052C680C432C6046
:100570000BF10C0500242C6018B140F4806080B2AF
:10058000FFE70BF10C052C6804432C600BF10C0603
:100590000125346865F34D3434600BF10C060125F8
:1005A000346865F3C30434600BF10C06012534682C
:1005B00065F3820434600BF1140500242C60039D64
:1005C000192465434FEA8C04B5FBF4F76424B7FBA8
:1005D000F4F42601350964246C433C1B240104F225
:1005E00032056424B5FBF4F404F00F0446EA040475
:1005F0000BF10805A4B22C60DDF800E009B07047EB
:10060000003801403803424259090000FC0900202B
:10061000FD090000000A0020150A0000040A00205D
:10062000A50A0000080A002000440040C40342421A
:1006300075090000BD0A0000750A00008D0A00005F
:1006400000480040C8034242AD09000041090000D3
:10065000C9090000D50A0000004C0040CC0342420A
:1006600091090000410D0000590D0000E90C000047
:1006700000500040D0034242E1090000010D00009B
:10068000890D0000710D000081B00168C1F3801078
:1006900001B0704781B0ADF800100146BDF8000010
:1006A0000B68C3F3C01202B9FAE70A1D106001B06B
:1006B0007047FFFF93B20A46014640F2000440F241
:1006C00000001FFA80F810469AB2EAB10B191D78A3
:1006D000EEB2631C9FB200EB08031C785FFA84F94A
:1006E00008F101081FFA88F8A54207D04E4502D24A
:1006F000FF2040B201E0012040B207E006B903E06C
:10070000521E92B2BCB2E0E7002040B27047FFFF39
:1007100081B00268C2F3401101B9FAE7011D09680E
:1007200088B201B07047FFFF014640F2000340F27B
:10073000000082B20846C118097821B15B1C9BB247
:10074000521C92B2F7E790B27047FFFF81B0CDF82C
:1007500000E08CB21546774B00EA03031E461846AC
:10076000FFF748FDB4F1FF0F0CD1734B9D4203D14D
:100770004FF033333360D9E0422D03D14FF044338F
:100780003360D3E04FF6FF739C4214D16A4B9D4215
:1007900007D14FF033333360341D4FF033332360D0
:1007A000C4E0422D07D14FF044333360341D4FF085
:1007B00044332360BAE00021002005F001030BB1AF
:1007C00000211DE005F0020333B105F4C0730BB145
:1007D000082100E0042113E005F0040333B105F023
:1007E00020030BB1042100E0002109E005F008031B
:1007F00033B105F020030BB10C2100E00821FFE725
:100800004E4B05EA03030BB1032009E005F4007326
:100810000BB1022004E005F480630BB10120FFE777
:1008200005F00C030BB10143FFE704F0FF039BB29B
:10083000002B3BD0376800201FFA84F832462E4642
:1008400008282CD24FF0010303FA00F408EA04034D
:10085000A34222D185004FF00F03AB40DB4307EAF0
:10086000030401FA05F344EA03031D4606F4817309
:10087000B3F5817F05D102F214044FF001038340E8
:10088000236006F08203822B05D102F210044FF0A0
:100890000103834023602F46FFE7401CD0E7176029
:1008A0001FFA88F00F463146164602E00F462946E9
:1008B000A0B2B0F1FF0F39D9331DD3F80080002268
:1008C000082A30D202F208044FF0010303FA04F4BC
:1008D00000EA0403A34224D195004FF00F03AB407C
:1008E000DB4308EA030807FA05F348EA030801F4C2
:1008F0008173B3F5817F07D106F2140502F2080473
:100900004FF00103A3402B6001F08203822B07D13B
:1009100006F2100502F208044FF00103A3402B6019
:10092000FFE7521CCCE7331DC3F80080DDF800E080
:1009300001B0704700FCFFFF140008000008080029
:1009400081B0CDF800E00348FFF7E2FEDDF800E0FB
:1009500001B070470048004081B0CDF800E081B29E
:100960000348FFF797FEDDF800E001B0704700BFD5
:100970000038014081B0CDF800E081B20348FFF7B4
:1009800089FEDDF800E001B0704700BF0044004080
:1009900081B0CDF800E081B20348FFF77BFEDDF8BF
:1009A00000E001B0704700BF004C004081B0CDF8BE
:1009B00000E081B20348FFF76DFEDDF800E001B012
:1009C000704700BF0048004081B0CDF800E0034808
:1009D000FFF732FDDDF800E001B07047004800404D
:1009E00081B0CDF800E081B20348FFF753FEDDF897
:1009F00000E001B0704700BF0050004081B0CDF86A
:100A000000E00348FFF784FEDDF800E001B0704726
:100A10000038014081B0CDF800E00348FFF70CFD3D
:100A2000DDF800E001B070470038014081B013B23A
:100A30000246C8B211461DB22CB26B1E1DB214B1D3
:100A40000870491CF8E7104601B0704781B000916A
:100A5000014600980B461C465A1C15460346421C8C
:100A600010461A78227022780AB12B46F3E708461E
:100A700001B0704781B0CDF800E00348FFF7DCFC1F
:100A8000DDF800E001B070470044004081B0CDF8CF
:100A900000E00348FFF7F8FDDDF800E001B0704723
:100AA0000044004081B0CDF800E00348FFF7ECFDC2
:100AB000DDF800E001B070470038014081B0CDF8AA
:100AC00000E00348FFF724FEDDF800E001B07047C6
:100AD0000044004081B0CDF800E00348FFF7D4FDAA
:100AE000DDF800E001B070470048004081B0CDF86B
:100AF00000E0044A89B2FFF729FEDDF800E001B00A
:100B0000704700BF1400080085B0CDF800E08246B1
:100B100002918DF80C208DF810305046FFF704FE3E
:100B20008DF81100C4B2102C02D910248DF8114098
:100B3000012751469DF80C40A7423FD2032404FBF5
:100B400007F5029C641901912046FFF7EDFD01991C
:100B5000C2B240F2000C8A46F9B25FFA8CFB5FFA2F
:100B600082FC9DF81140A34523D20AEB0B06032417
:100B700004FB01F5029C64198DF804105FFA8CF2F5
:100B800031462046FFF796FD9DF8041058B99DF8B0
:100B900010400CB9C8B212E09DF81040012C02D1EF
:100BA0005FFA8BF00BE00BF10104E0B25FFA80FB1F
:100BB000D7E74C1CE5B25146EFB2BBE70020DDF8A9
:100BC00000E005B07047FFFF81B0CDF800E0019D67
:100BD0002C4610B408B493B28AB201460348FFF71A
:100BE00031FC02B0DDF800E001B070470048004081
:100BF00081B0CDF800E04FF0420289B2FFF7A6FDC8
:100C0000DDF800E001B0704781B0ADF8001001469A
:100C1000BDF900000B78C2B2934207D00B46491CC5
:100C20001A78002A01D1002001E0F3E7084601B05C
:100C30007047FFFF81B0CDF800E004462046FFF783
:100C400073FDC5B2204600F037FA0124EBB20D491E
:100C500009888C4211D222010B49891809889942CE
:100C600008D1220108498918091D0968814201D16A
:100C7000A0B203E0641CA4B2E9E70020DDF800E0C4
:100C800001B07047E0030020E403002081B0044677
:100C900040F20000ADF8002082B20846BDF8001016
:100CA00059B183181B782370237813B1521C92B268
:100CB000FFE7641C491E89B2F2E701B07047FFFFED
:100CC00081B0CDF800E0019D2C4610B408B493B279
:100CD0008AB201460348FFF7B5FB02B0DDF800E039
:100CE00001B070470044004081B0CDF800E00348F7
:100CF000FFF7CAFCDDF800E001B07047004C00408F
:100D000081B0CDF800E00348FFF702FDDDF800E018
:100D100001B070470050004081B0CDF800E0019D67
:100D20002C4610B408B493B28AB201460348FFF7C8
:100D300089FB02B0DDF800E001B0704700380140E7
:100D400081B0CDF800E00348FFF7E2FCDDF800E0F9
:100D500001B07047004C004081B0CDF800E003487E
:100D6000FFF76AFBDDF800E001B07047004C00407F
:100D700081B0CDF800E00348FFF786FCDDF800E025
:100D800001B070470050004081B0CDF800E003484A
:100D9000FFF752FBDDF800E001B070470050004063
:100DA00001490860704700BF9881224201490860EC
:100DB000704700BFAC81224201490860704700BF04
:100DC0009881214201490860704700BF9481224206
:100DD00001490860704700BFAC0122420149086028
:100DE000704700BFA801224201490860704700BF58
:100DF000B081224201490860704700BFB001224221
:100E000081B0CDF800E0044C2468A047C0B2DDF802
:100E100000E001B0704700BFE405002081B0CDF8CC
:100E200000E083468A46BBF1000F18D09BF80020F3
:100E3000AAB15046FFF778FC82B251465846FFF7F8
:100E400039FC08B958460BE09AF80020D3B20BF1F0
:100E5000010219B21046FFF7D7FE8346E3E70020F0
:100E6000DDF800E001B0704789B0CDF800E00690F1
:100E700007910DF1040B0BF1110ADFF8B0C000F07F
:100E800089FE002307222A490698FFF73DFE8DF8C8
:100E900020000123072226490698FFF735FE8DF82A
:100EA00021000023062223490698FFF72DFE8DF826
:100EB0002200012306221F490698FFF725FEC1B232
:100EC00008B9102000E0C8B29DF82120841A9DF8CE
:100ED0002130069AD31801AA19461046A2B2FFF78C
:100EE000D5FE01AA1046FFF7A5FEC1B2C2B213019A
:100EF000114AD2180C321368079A1360079A141D0E
:100F00000B010D4AD218083212682260079A02F2C9
:100F100008039DF820201A70079A0832531C9DF888
:100F200022201A70DDF800E009B07047EE2A0000B8
:100F3000B3030020C8030020E40300200022164968
:100F40000A70002215490A70012215490A70002210
:100F500014490A60012214490A7014490A88144984
:100F600089180870114909884A1C10490A800F49DC
:100F70000A8810498A4202D301220F490A700B499C
:100F80000A8840F2E7318A4204D1084909884A1E9A
:100F900006490A80704700BFEA050020EB050020E3
:100FA000E2090020E8090020E8050020F8050020FB
:100FB000FA050020C0000000DB0300200204060840
:100FC00044F67F77C0F212077F1EFDD100BF00BF3D
:100FD00000BF00BF00BF704701490860704700BFF5
:100FE0009C81214281B0CDF800E0044C2468A047E8
:100FF000C0B2DDF800E001B0704700BFE409002096
:1010000083B0CDF800E002900190012100F050FD86
:1010100001980278242A0AD140F2F41212B2002177
:101020000548FFF703FD02990348FFF70FFDDDF8C0
:1010300000E003B0704700BF1C00002001490860B9
:10104000704700BFB8812242011D0A6801490A6049
:10105000704700BFEC090020026806490A60011DC4
:101060000A6805490A6000F208010A6803490A6033
:10107000704700BFF4090020E4090020E4050020C7
:1010800081B0CDF800E00B4D00F20C010C6800F2CD
:1010900008010B68011D0A680168084691B29AB2FE
:1010A000A3B220B4FFF790FD01B00020DDF800E00E
:1010B00001B070471829000000214FF005040346D5
:1010C000C8B21A46591C0B461178CAB24AB100F090
:1010D0000701C9B202FA01F189B26418401CC0B21A
:1010E000EFE720467047FFFF01490860704700BFE7
:1010F0009001214281B0CDF800E0A9E0012905D19D
:1011000040F210016548FFF773FD04E040F2100162
:101110006248FFF7EBFCBBE0012905D140F2040176
:101120005F48FFF765FD04E040F204015C48FFF70B
:10113000DDFCADE0012905D142F200015948FFF77D
:1011400057FD04E042F200015648FFF7CFFC9FE054
:10115000012905D140F200415148FFF749FD04E063
:1011600040F200414E48FFF7C1FC91E0012905D152
:1011700040F600014A48FFF73BFD04E040F600015D
:101180004748FFF7B3FC83E0012905D141F2000194
:101190004348FFF72DFD04E041F200014048FFF70E
:1011A000A5FC75E0012905D140F201013B48FFF79C
:1011B0001FFD04E040F201013848FFF797FC67E0AB
:1011C000012905D140F200413648FFF711FD04E046
:1011D00040F200413348FFF789FC59E0012905D16D
:1011E00040F200212F48FFF703FD04E040F2002108
:1011F0002C48FFF77BFC4BE0012905D140F20011A0
:101200002848FFF7F5FC04E040F200112548FFF7FD
:101210006DFC3DE0012905D140F240012248FFF775
:10122000E7FC04E040F240011F48FFF75FFC2FE0BD
:10123000012905D140F280011B48FFF7D9FC04E0E9
:1012400040F280011848FFF751FC21E0012020E026
:1012500000283FF453AF01283FF45EAF02283FF46B
:1012600069AF03283FF474AF04283FF47FAF05282B
:101270003FF48AAF06283FF495AF0728A0D008288E
:10128000ACD00928B8D00A28C4D00B28D0D0DDE7CC
:101290000020DDF800E001B0704700BF0008014009
:1012A0000010014000140140000C014081B0CDF855
:1012B00000E0A9E0012905D140F220016548FFF7CF
:1012C00097FC04E040F220016248FFF70FFCBBE00E
:1012D000012905D140F208015F48FFF789FC04E0CD
:1012E00040F208015C48FFF701FCADE0012905D19F
:1012F00044F200015948FFF77BFC04E044F200018E
:101300005648FFF7F3FB9FE0012905D140F2004169
:101310005148FFF76DFC04E040F200414E48FFF7F2
:10132000E5FB91E0012905D140F600014A48FFF7AD
:101330005FFC04E040F600014748FFF7D7FB83E07D
:10134000012905D141F200014348FFF751FC04E0B7
:1013500041F200014048FFF7C9FB75E0012905D1C2
:1013600041F200013D48FFF743FC04E041F2000177
:101370003A48FFF7BBFB67E0012905D140F60001C1
:101380003648FFF735FC04E040F600013348FFF72C
:10139000ADFB59E0012905D140F240012F48FFF78C
:1013A00027FC04E040F240012C48FFF79FFB4BE094
:1013B000012905D140F220012848FFF719FC04E07B
:1013C00040F220012548FFF791FB3DE0012905D1BE
:1013D00040F240012248FFF70BFC04E040F24001DC
:1013E0001F48FFF783FB2FE0012905D140F2800160
:1013F0001B48FFF7FDFB04E040F280011848FFF7AF
:1014000075FB21E0012020E000283FF453AF0128C4
:101410003FF45EAF02283FF469AF03283FF474AF96
:1014200004283FF47FAF05283FF48AAF06283FF435
:1014300095AF0728A0D00828ACD00928B8D00A2832
:10144000C4D00B28D0D0DDE70020DDF800E001B0EB
:10145000704700BF00080140001001400014014027
:10146000000C014081B0EFF3108C604662B601B011
:101470007047FFFF81B0CDF800E0094902B440F2A7
:10148000000340F2000240F20001FFF719FC01B036
:10149000044A05490A600020DDF800E001B0704709
:1014A000F029000075090000DC03002081B0CDF8B0
:1014B00000E0094902B440F2000340F2000240F2A9
:1014C0000001FFF729FC01B0044A05490A60002029
:1014D000DDF800E001B070478429000059090000E0
:1014E000DC03002081B0CDF800E0094902B440F2ED
:1014F000000340F2000240F20001FFF7E1FB01B0FF
:10150000044A05490A600020DDF800E001B0704798
:10151000F029000075090000DC03002081B0CDF83F
:1015200000E0094902B440F2000340F2000240F238
:101530000001FFF749FB01B0044A05490A60002099
:10154000DDF800E001B0704718290000AD09000087
:10155000DC03002081B0042806D11949096841F450
:10156000803217490A6028E0052806D11449096825
:1015700041F4003212490A601FE0062806D11049E2
:10158000096841F480220E490A6016E00F2806D14E
:101590000C49096841F002020A490A600DE010286E
:1015A0000BD3A0F2100461098A0007498B1804F0DC
:1015B0001F024FF001019140196001B0704700BF58
:1015C00024ED00E010E000E000E100E081B0CDF8A3
:1015D00000E00B4D00F20C010C6800F208010B68F2
:1015E000011D0A680168084691B29AB2A3B220B4FC
:1015F000FFF766FB01B00020DDF800E001B07047A6
:10160000F029000081B0CDF800E00178CCB2A0B2A2
:10161000034C2468A0470020DDF800E001B07047CB
:10162000DC03002001490860704700BFA48122420A
:1016300001490860704700BFA0812242014908604B
:10164000704700BF8001214201490860704700BF18
:10165000A881224201490860704700BF94012142DD
:1016600001490860704700BF8C01224201490860AF
:10167000704700BF9881214201490860704700BF50
:101680009C81214201490860704700BFB481224219
:1016900001490860704700BFA80122420149086063
:1016A000704700BF8801224201490860704700BFAF
:1016B000B001224201490860704700BFAC012242DC
:1016C00081B0CDF800E05FFA81F95FFA82FA0FE0AD
:1016D0005FFA8AF15FFA89F0FFF70CFD0DE05FFA1F
:1016E0008AF15FFA89F0FFF7E1FD06E0012004E0EE
:1016F0000028EDD00128F2D0F8E7DDF800E001B0D5
:101700007047FFFFADF2584DCDF800E00DF1040B2E
:101710000BF58A6ADFF8A8C000F03CFA5FFA82FC99
:1017200000238DF85434FFF779FB054608B901987A
:1017300040E06B1C242109B21846FFF765FA014608
:1017400008B9019836E04C1B02ABA2B229461846F4
:10175000FFF79CFA02AE5FFA8CF435469DF85434DC
:10176000A34218D02C2109B22846FFF74DFA431C9A
:101770001E461B782C2B07D19DF854345B1C1BB2E2
:10178000A34201D1019815E09DF854345B1C8DF8FB
:1017900054343546E2E76B1C2C2109B21846FFF79A
:1017A00033FA441BFCABA2B229461846FFF76EFA87
:1017B000FCAB1846DDF800E00DF2584D704700BF55
:1017C000EC20000081B0CDF800E011E00846FFF702
:1017D000A5FE16E00846FFF785FE12E00846FFF773
:1017E00065FE0EE00846FFF745FE0AE0012008E02E
:1017F0000028EBD00128EDD02028EFD03028F1D000
:10180000F4E7DDF800E001B07047FFFF81B0CDF8EC
:1018100000E009E00846FFF733FC0AE00846FFF75E
:10182000D5FE06E0012004E00028F3D00128F5D021
:10183000F8E7DDF800E001B07047FFFF01490870EC
:10184000704700BFE309002081B0CDF800E000231D
:10185000244A13700023244A13700023234A137070
:101860000023234A1370234A1060234A1160234A3D
:101870001046FFF721FC224A10600023214A138002
:101880000123214A13800023204A13800023204A89
:1018900013700023164A13700023144A1370012397
:1018A000104A13700023124A137000230F4A13705A
:1018B00000230C4A13700023164A13600123164AB2
:1018C00013700023144A13700023144A1360012379
:1018D000134A13700023124A1370DDF800E001B0C0
:1018E000704700BFE2090020DB030020EB05002069
:1018F000EA050020F0030020EC030020DA030020BA
:10190000E8030020E4030020E0030020F8050020A5
:10191000FA050020F0090020E9050020E809002070
:10192000E805002081B0CDF800E00020012806D0B5
:10193000FFF766FA18B1FFF755FBFFF7FFFA4048CB
:10194000007800282DD000213E48017000213E483B
:1019500001703E480078022805D13D493D483E4C83
:101960002468A0470BE03C493A48FFF77DFA022182
:101970003648017036493748374C2468A047002163
:101980002F48017000213548018000213148017045
:101990000021334801700021324801700021324893
:1019A000017030480078002820D0002125480170BF
:1019B00000212548017028492648FFF755FA0021E3
:1019C0002248017022492348234C2468A047002163
:1019D0002248018000211F48017000212048017029
:1019E00000212048017000211F4801701C48007828
:1019F000002820D0002113480170002112480170F6
:101A000015491448FFF730FA0121104801701049B8
:101A10001048114C2468A047002110480180002183
:101A20000C48017000210E48017000210D48017022
:101A300000210D480170DDF800E001B0704700BFE3
:101A4000DB030020E8050020E9050020F605002062
:101A5000F4050020FA050020EC050020F805002020
:101A6000EA050020EB050020E209002081B0CDF856
:101A700000E090B101200D4C2468A047FFF7A0FAC8
:101A800000200A4C2468A047FFF79AFAFFF798FA5B
:101A90000120064C2468A04703E00020034C246882
:101AA000A047DDF800E001B0704700BFEC0900205E
:101AB00083B0CDF800E0024610460D228DF80820D4
:101AC0000A228DF809201FE0FFF79CFD23E0027831
:101AD0002AB10190FFF796FD0198401CF7E71AE044
:101AE00002782AB10190FFF78DFD0198401CF7E7BD
:101AF00002AA1046FFF786FD0DF109021046FFF716
:101B000081FD08E0062007E00029DDD00129DED0B4
:101B10000229E5D0F6E70020DDF800E003B07047C9
:101B200081B0CDF800E0012149B20E4801600021EA
:101B300049B20D48016001210C48016048F69F41FF
:101B40000B48016040F22C00FFF704FD012149B26F
:101B50000848016004480160FFF784FCDDF800E0FC
:101B600001B070478003424200000042280000405C
:101B70002C0000408001004281B0CDF800E0034617
:101B80000846FFF769FA1846FFF75EFADDF800E04D
:101B900001B0704781B01CF8019B0BF8019BBBEBB7
:101BA0000A0FF8D101B0704781B01548006840F0C5
:101BB000010113480160134913480160104801688E
:101BC000124801400E4801600D4801686FF4802002
:101BD00001400B4801600C4801686FF4FE000140B1
:101BE00009480160064801686FF0A05001400448B0
:101BF00001604FF000010648016001B0704700BF6E
:101C0000001002400000FFF004100240FFFFF6FE4B
:101C10002C1002401C480078C8B11C4802681B48C0
:101C20000068411C194801601948006882420ED9B9
:101C300000211548017000211448016015480188F1
:101C400015484118002008700121144801701448FB
:101C50000078C0B11348026812480068411C11485E
:101C60000160114882420ED900210D480170002107
:101C70000C48016007480188074841180020087097
:101C800001210A4801707047E9050020F009002091
:101C9000F0050020F8050020FA050020EA050020E4
:101CA000E8050020E809002005000000EB05002001
:101CB0008EB0CDF800E00DF1040B0BF1320ADFF825
:101CC00054C1FFF767FFFFF72DFE5348016841F24B
:101CD000883081420FD951490878401CC0B2087041
:101CE000022802D900214D48017000214A480160B4
:101CF00001214B48017049480078002829D1484803
:101D00000078012825D147480221FFF7D1FE464837
:101D10000221FFF7CDFE022244494548FFF7F2FCBD
:101D2000014620B943480221FFF7C2FE0AE001A89C
:101D3000FEF78CFE40480121FFF7BAFE01A8022100
:101D4000FFF7B6FE0021364801703C480221FFF73C
:101D5000AFFE32480078022829D1314800780128A6
:101D600025D137480221FFF7A3FE36480221FFF7AD
:101D70009FFE09222D492E48FFF7C4FC014620B9D9
:101D800031480221FFF794FE0AE001A8FEF75EFE4B
:101D90002E480121FFF78CFE01A80221FFF788FEE3
:101DA00000211F4801702A480221FFF781FE1B48CD
:101DB0000078012829D11A480078012825D1254822
:101DC0000221FFF775FE24480221FFF771FE04226D
:101DD00016491748FFF796FC014620B91F48022113
:101DE000FFF766FE0AE001A8FEF730FE1C4801215D
:101DF000FFF75EFE01A80221FFF75AFE0021084806
:101E0000017018480221FFF753FEDDF800E00EB024
:101E1000704700BFBC2A00001800002010020020FC
:101E200011020020120200201502002040020020B2
:101E30001C000020500200206F0200207C020020C5
:101E4000A7020020AA020020D5020020F4020020F0
:101E5000010300202C0300202F0300205A03002040
:101E60007A0300208803002081B0CDF800E0002232
:101E700001210020FFF724FC084801460020FFF75D
:101E8000C5FC42F280512020FFF79CFC044802214F
:101E9000FFF70EFEDDF800E001B07047102B0000E8
:101EA00000000020FFFFFFFF81B0CDF800E0FFF74A
:101EB00037FE10491048FFF75FFE104840F2DC5132
:101EC000FFF7C2FC0120FFF7B9FC0120FFF7CEFDB0
:101ED00048F2FF67C0F293377F1EFDD100BF00BFFD
:101EE00000BF00BF00BF002105480160DDF800E031
:101EF00001B07047202B00005C2A00000110000098
:101F00001800002081B04FF000094FF0000CBDEB2D
:101F10000A0F04DCBDEB0B0F01DBD446EA464BF89D
:101F2000049BBBEB0A0FFAD1BCEB0A0F05DDE246BE
:101F3000D9F800B00BF1040BF1E701B07047FFFFD7
:101F400081B0FEE701B0704781B0CDF800E0FFF747
:101F500061FE06490868401C0860002149B2044837
:101F60000160DDF800E001B0704700BF18000020FC
:101F70000002004281B0CDF800E0464A464B474C93
:101F800047494BF68030814206D94648006840F008
:101F900002014448016011E045F6C050814206D973
:101FA0004048006840F001013E48016006E03D48BD
:101FB00001686FF0070001403A480160FFF7F4FD47
:101FC0003948036039480460394802EA0001394859
:101FD000016002F0010040B119463648006800F087
:101FE0000200002800D1F8E700E0194602F4803032
:101FF00040B10B462F48006800F40030002800D1A3
:10200000F8E700E00B4602F0805068B1294800680C
:1020100040F08051274801602648006800F00050D9
:10202000002800D1F8E7FFE702F0806078B121488E
:10203000006840F080611F48016011461A461D4843
:10204000006800F00060002800D1F8E701E01146C8
:102050001A4601F0807070B11648006840F0807137
:102060001448016011461348006800F0007000B980
:10207000F9E70A46FFE70C48006800F00C01900001
:1020800000F00C00814200D0F5E7DDF800E001B07F
:10209000704700BF8100010502841D004406010055
:1020A0004019010000200240041002402C100240A0
:1020B000FFFF0F0000100240FFF75CFF00F076FD0D
:1020C00000F00AF800F032FDFFF7CEFEFFF7ECFE5D
:1020D000FFF7EEFDFCE7FEE781B002490248016030
:1020E00001B0704740190100F8090020000000000D
:1020F00000000000000000000000000000000000E0
:1021000000000000000000000000000000000000CF
:1021100000000000000000000000000000000000BF
:1021200000000000000000000000000000000000AF
:1025300000000000000000000000000000202D2D21
:102540002D2D2053797374656D20496E6974202D8B
:102550002D2D2D20000000000000000000000000D4
:10256000000000000000000000000000000000006B
:10257000000000000000000000000000000000005B
:10258000000000000000000000000000000000004B
:10259000000000000000000000000000000000003B
:1025A000000000000000000000000000000000002B
:1025B000000000000000000000000000000000001B
:1025C000000000000000000000000000000000000B
:1025D00000000000000000000000000000000000FB
:1025E00000000000000000000000000000000000EB
:1025F00000000000000000000000000000000000DB
:1026000000000000000000000000000000000000CA
:1026100000000000000000000000000000000000BA
:1026200000000000000000000000000000000000AA
:10263000000000000000000000000000000000009A
:10264000000000000000000000000000000000008A
:10265000000000000000000000000000000000007A
:10266000000000000000000000000000000000006A
:10267000000000000000000000000000000000005A
:10268000000000000000000000000000000000004A
:10269000000000000000000000000000000000003A
:1026A000000000000000000000000000000000002A
:1026B000000000000000000000000000000000001A
:1026C000000000000000000000000000000000000A
:1026D00000000000000000000000000000000000FA
:1026E00000000000000000000000000000000000EA
:1026F00000000000000000000000000000000000DA
:1027000000000000000000000000000000000000C9
:1027100000000000000000000000000000000000B9
:1027200000000000000000000000000000000000A9
:102730000000000000000000000000000000000099
:102740000000000000000000000000000000002069
:102750002000202D2D2D2D2D2D2D2D2D2D2D2D2DF0
:102760002D2D2D2D2D2D2D2D2D2D2D2D2D2D2D2D99
:102770002D2D2D2D2D2D2D2D2D2D2D200024474E91
:1027800047474100000000000000000000204C61AD
:10279000746974756465203A204E6F2064617461B9
:1027A00020617661696C61626C652100204C617406
:1027B0006974756465203A2000202D2D2D2D2D2D56
:1027C0002D2D2D2D2D2D2D2D2D2D2D2D2D2D2D2D39
:1027D0002D2D2D2D2D2D2D2D2D2D2D2D2D2D2D2D29
:1027E0002D2D2000202000202D2D2D2D2D2D2D2DA7
:1027F0002D2D2D2D2D2D2D2D2D2D2D2D2D2D2D2D09
:102800002D2D2D2D2D2D2D2D2D2D2D2D2D2D2D2DF8
:10281000200020416C746974756465203A204E6F05
:10282000206461746120617661696C61626C65210C
:102830000020416C746974756465203A2000202D75
:102840002D2D2D2D2D2D2D2D2D2D2D2D2D2D2D2DB8
:102850002D2D2D2D2D2D2D2D2D2D2D2D2D2D2D2DA8
:102860002D2D2D2D2D2D2D2000202000202D2D2D26
:102870002D2D2D2D2D2D2D2D2D2D2D2D2D2D2D2D88
:102880002D2D2D2D2D2D2D2D2D2D2D2D2D2D2D2D78
:102890002D2D2D2D2D2000204C6F6E6769747564D1
:1028A00065203A204E6F2064617461206176616911
:1028B0006C61626C652100204C6F6E676974756491
:1028C00065203A2000202D2D2D2D2D2D2D2D2D2D47
:1028D0002D2D2D2D2D2D2D2D2D2D2D2D2D2D2D2D28
:1028E0002D2D2D2D2D2D2D2D2D2D2D2D2D2D200052
:1028F0000000002B0000230000240000255C0026BF
:1029000000000000000000003D3F003F00003D00CF
:10291000003A00000D0000003800000039000000FF
:10292000FFFFFFFF000000000000000000000000AB
:102930000000000000000000000000000000000097
:102940000000000000000000000000001808000067
:10295000180000000000000000000000000000005F
:102960000000000000000000000000000000000067
:102970000000000000000000000000000000000057
:1029800030001408090000000A000000FFFFFFFFEC
:102990000000000000000000000000000000000037
:1029A0000000000000000000000000000000000027
:1029B00000000000000000001808000018000000DF
:1029C0000000000000000000000000000000000007
:1029D00000000000000000000000000000000000F7
:1029E00000000000000000000000000004000000E3
:1029F0003500000036000000FFFFFFFF0000000070
:102A000000000000000000000000000000000000C6
:102A100000000000000000000000000000000000B6
:102A2000000000001808000018000000000000006E
:102A30000000000000000000000000000000000096
:102A40000000000000000000000000000000000086
:102A5000000000000000000008000008E91000006D
:102A60009D1600008516000091160000B5160000A6
:102A7000A91600003D1600004916000025160000AA
:102A8000311600006D16000079160000FFFFFFFFF1
:102A9000FFFFFFFFFFFFFFFFFFFFFFFFFFFFFFFF46
:102AA000FFFFFFFFFFFFFFFFFFFFFFFFFFFFFFFF36
:102AB000FFFFFFFFFFFFFFFFFFFFFFFF0000000022
:102AC0000000000000000000000000000000000006
:102AD00000000000000000000000000000000000F6
:102AE00000000000000000000000000000000000E6
:102AF00000000000000000000000000000000000D6
:102B0000000000010203040102030406070809FF94
:102B10008025000000000000000000000000000010
:102B2000AD09000041090000C909000000B5DFF847
:102B300014B0DFF814A0DFF814C0FFF72BF800BDC5
:102B4000704700BF00000020DB0300203D2500008F
:102B5000FFFFFFFFFFFFFFFFFFFFFFFFFFFFFFFF85
:102B6000FFFFFFFFFFFFFFFFFFFFFFFFFFFFFFFF75
:102B7000FFFFFFFFFFFFFFFFFFFFFFFFFFFFFFFF65
:102B8000FFFFFFFFFFFFFFFFFFFFFFFFFFFFFFFF55
:102B9000FFFFFFFFFFFFFFFFFFFFFFFFFFFFFFFF45
:102BA000FFFFFFFFFFFFFFFFFFFFFFFF00B5DFF8A5
:102BB00010B0DFF810A0FFF7A5F900BD704700BF07
:102BC000000000200C0A0020FFFFFFFFFFFFFFFFB7
:00000001FF
